{
  "_format": "hh-sol-artifact-1",
  "contractName": "TradingNFT",
  "sourceName": "contracts/TradingNFT.sol",
  "abi": [
    {
      "inputs": [],
      "stateMutability": "nonpayable",
      "type": "constructor"
    },
    {
      "anonymous": false,
      "inputs": [
        {
          "indexed": true,
          "internalType": "uint256",
          "name": "_itemsId",
          "type": "uint256"
        },
        {
          "indexed": true,
          "internalType": "uint256",
          "name": "tokenId",
          "type": "uint256"
        },
        {
          "indexed": true,
          "internalType": "uint256",
          "name": "price",
          "type": "uint256"
        },
        {
          "indexed": false,
          "internalType": "bool",
          "name": "soldOut",
          "type": "bool"
        },
        {
          "indexed": false,
          "internalType": "address",
          "name": "contractAddress",
          "type": "address"
        },
        {
          "indexed": false,
          "internalType": "address",
          "name": "seller",
          "type": "address"
        },
        {
          "indexed": false,
          "internalType": "address",
          "name": "owner",
          "type": "address"
        }
      ],
      "name": "TradingItemCreated",
      "type": "event"
    },
    {
      "inputs": [
        {
          "internalType": "address",
          "name": "nftContract",
          "type": "address"
        },
        {
          "internalType": "uint256",
          "name": "itemId",
          "type": "uint256"
        }
      ],
      "name": "createTradeSale",
      "outputs": [],
      "stateMutability": "payable",
      "type": "function"
    },
    {
      "inputs": [
        {
          "internalType": "address",
          "name": "nftContract",
          "type": "address"
        },
        {
          "internalType": "uint256",
          "name": "tokenId",
          "type": "uint256"
        },
        {
          "internalType": "uint256",
          "name": "price",
          "type": "uint256"
        }
      ],
      "name": "createTradingItem",
      "outputs": [],
      "stateMutability": "payable",
      "type": "function"
    },
    {
      "inputs": [],
      "name": "getCreatedItems",
      "outputs": [
        {
          "components": [
            {
              "internalType": "uint256",
              "name": "_itemsId",
              "type": "uint256"
            },
            {
              "internalType": "uint256",
              "name": "tokenId",
              "type": "uint256"
            },
            {
              "internalType": "uint256",
              "name": "price",
              "type": "uint256"
            },
            {
              "internalType": "bool",
              "name": "soldOut",
              "type": "bool"
            },
            {
              "internalType": "address",
              "name": "contractAddress",
              "type": "address"
            },
            {
              "internalType": "address payable",
              "name": "seller",
              "type": "address"
            },
            {
              "internalType": "address payable",
              "name": "owner",
              "type": "address"
            }
          ],
          "internalType": "struct TradingNFT.TradingItem[]",
          "name": "",
          "type": "tuple[]"
        }
      ],
      "stateMutability": "view",
      "type": "function"
    },
    {
      "inputs": [],
      "name": "getListingPrice",
      "outputs": [
        {
          "internalType": "uint256",
          "name": "",
          "type": "uint256"
        }
      ],
      "stateMutability": "view",
      "type": "function"
    },
    {
      "inputs": [],
      "name": "getTradingItems",
      "outputs": [
        {
          "components": [
            {
              "internalType": "uint256",
              "name": "_itemsId",
              "type": "uint256"
            },
            {
              "internalType": "uint256",
              "name": "tokenId",
              "type": "uint256"
            },
            {
              "internalType": "uint256",
              "name": "price",
              "type": "uint256"
            },
            {
              "internalType": "bool",
              "name": "soldOut",
              "type": "bool"
            },
            {
              "internalType": "address",
              "name": "contractAddress",
              "type": "address"
            },
            {
              "internalType": "address payable",
              "name": "seller",
              "type": "address"
            },
            {
              "internalType": "address payable",
              "name": "owner",
              "type": "address"
            }
          ],
          "internalType": "struct TradingNFT.TradingItem[]",
          "name": "",
          "type": "tuple[]"
        }
      ],
      "stateMutability": "view",
      "type": "function"
    },
    {
      "inputs": [],
      "name": "getUserNFT",
      "outputs": [
        {
          "components": [
            {
              "internalType": "uint256",
              "name": "_itemsId",
              "type": "uint256"
            },
            {
              "internalType": "uint256",
              "name": "tokenId",
              "type": "uint256"
            },
            {
              "internalType": "uint256",
              "name": "price",
              "type": "uint256"
            },
            {
              "internalType": "bool",
              "name": "soldOut",
              "type": "bool"
            },
            {
              "internalType": "address",
              "name": "contractAddress",
              "type": "address"
            },
            {
              "internalType": "address payable",
              "name": "seller",
              "type": "address"
            },
            {
              "internalType": "address payable",
              "name": "owner",
              "type": "address"
            }
          ],
          "internalType": "struct TradingNFT.TradingItem[]",
          "name": "",
          "type": "tuple[]"
        }
      ],
      "stateMutability": "view",
      "type": "function"
    },
    {
      "inputs": [],
      "name": "viewListPrice",
      "outputs": [
        {
          "internalType": "uint256",
          "name": "",
          "type": "uint256"
        }
      ],
      "stateMutability": "view",
      "type": "function"
    }
  ],
  "bytecode": "0x6080604052662386f26fc1000060035534801561001b57600080fd5b506001600055600480546001600160a01b03191633179055610d2d806100426000396000f3fe6080604052600436106100705760003560e01c806334238d931161004e57806334238d93146100d457806370c2df11146100e95780638edfa6cb146100fc578063d9a80fc51461011157600080fd5b80630bc52de11461007557806312e85585146100a057806313ec43db146100bf575b600080fd5b34801561008157600080fd5b5061008a610127565b6040516100979190610c02565b60405180910390f35b3480156100ac57600080fd5b506003545b604051908152602001610097565b6100d26100cd366004610bd0565b6102d1565b005b3480156100e057600080fd5b5061008a61057a565b6100d26100f7366004610ba7565b610762565b34801561010857600080fd5b5061008a610967565b34801561011d57600080fd5b506100b160035481565b6060600061013460015490565b9050600061014160025490565b60015461014e9190610caf565b90506000808267ffffffffffffffff81111561017a57634e487b7160e01b600052604160045260246000fd5b6040519080825280602002602001820160405280156101b357816020015b6101a0610b4f565b8152602001906001900390816101985790505b50905060005b848110156102c85760006005816101d1846001610c97565b81526020810191909152604001600020600501546001600160a01b031614156102b6576000610201826001610c97565b600081815260056020818152604092839020835160e08101855281548152600182015492810192909252600281015493820193909352600383015460ff8116151560608301526001600160a01b03610100909104811660808301526004840154811660a08301529183015490911660c08201528551929350909185908790811061029b57634e487b7160e01b600052603260045260246000fd5b60209081029190910101526102b1600186610c97565b945050505b806102c081610cc6565b9150506101b9565b50949350505050565b600260005414156103295760405162461bcd60e51b815260206004820152601f60248201527f5265656e7472616e637947756172643a207265656e7472616e742063616c6c0060448201526064015b60405180910390fd5b60026000558061037b5760405162461bcd60e51b815260206004820152601c60248201527f5072696365206d7573742062652067726561746572207468616e2030000000006044820152606401610320565b60035434146103d75760405162461bcd60e51b815260206004820152602260248201527f76616c7565206d75737420626520657175616c20746f20302e30312065746865604482015261727360f01b6064820152608401610320565b6103e5600180546001019055565b60006103f060015490565b6040805160e08101825282815260208082018781528284018781526000606085018181526001600160a01b038c8116608088018181523360a08a0181815260c08b018781528d885260059a8b9052968c90209a518b55975160018b0155955160028a015592516003890180549451841661010002610100600160a81b0319921515929092166001600160a81b031990951694909417179092559351600480880180549287166001600160a01b0319938416179055925196909501805496909416959094169490941790915592516323b872dd60e01b81529182019290925230602482015260448101869052919250906323b872dd90606401600060405180830381600087803b15801561050257600080fd5b505af1158015610516573d6000803e3d6000fd5b50506040805160008082526001600160a01b038916602083015233828401526060820152905185935086925084917f348b9738f7309f3037c084495f5bc6714c0a6e2fa58b6e8d54281466d282d445919081900360800190a4505060016000555050565b6060600061058760015490565b905060008060005b838110156105ea5733600560006105a7846001610c97565b81526020810191909152604001600020600501546001600160a01b031614156105d8576105d5600184610c97565b92505b806105e281610cc6565b91505061058f565b5060008267ffffffffffffffff81111561061457634e487b7160e01b600052604160045260246000fd5b60405190808252806020026020018201604052801561064d57816020015b61063a610b4f565b8152602001906001900390816106325790505b50905060005b848110156102c857336005600061066b846001610c97565b81526020810191909152604001600020600501546001600160a01b0316141561075057600061069b826001610c97565b600081815260056020818152604092839020835160e08101855281548152600182015492810192909252600281015493820193909352600383015460ff8116151560608301526001600160a01b03610100909104811660808301526004840154811660a08301529183015490911660c08201528551929350909185908790811061073557634e487b7160e01b600052603260045260246000fd5b602090810291909101015261074b600186610c97565b945050505b8061075a81610cc6565b915050610653565b600260005414156107b55760405162461bcd60e51b815260206004820152601f60248201527f5265656e7472616e637947756172643a207265656e7472616e742063616c6c006044820152606401610320565b600260008181558281526005602052604090209081015460019091015434821461082f5760405162461bcd60e51b815260206004820152602560248201527f416d6f756e74206d75737420626520657175616c20746f2073656c6c696e6720604482015264707269636560d81b6064820152608401610320565b6040516323b872dd60e01b8152306004820152336024820152604481018290526001600160a01b038516906323b872dd90606401600060405180830381600087803b15801561087d57600080fd5b505af1158015610891573d6000803e3d6000fd5b5050506000848152600560205260408082206004015490516001600160a01b0390911692503480156108fc0292909190818181858888f193505050501580156108de573d6000803e3d6000fd5b50600083815260056020819052604090912090810180546001600160a01b03191633179055600301805460ff1916600117905561091f600280546001019055565b6004546003546040516001600160a01b039092169181156108fc0291906000818181858888f1935050505015801561095b573d6000803e3d6000fd5b50506001600055505050565b6060600061097460015490565b905060008060005b838110156109d7573360056000610994846001610c97565b81526020810191909152604001600020600401546001600160a01b031614156109c5576109c2600184610c97565b92505b806109cf81610cc6565b91505061097c565b5060008267ffffffffffffffff811115610a0157634e487b7160e01b600052604160045260246000fd5b604051908082528060200260200182016040528015610a3a57816020015b610a27610b4f565b815260200190600190039081610a1f5790505b50905060005b848110156102c8573360056000610a58846001610c97565b81526020810191909152604001600020600401546001600160a01b03161415610b3d576000610a88826001610c97565b600081815260056020818152604092839020835160e08101855281548152600182015492810192909252600281015493820193909352600383015460ff8116151560608301526001600160a01b03610100909104811660808301526004840154811660a08301529183015490911660c082015285519293509091859087908110610b2257634e487b7160e01b600052603260045260246000fd5b6020908102919091010152610b38600186610c97565b945050505b80610b4781610cc6565b915050610a40565b6040805160e081018252600080825260208201819052918101829052606081018290526080810182905260a0810182905260c081019190915290565b80356001600160a01b0381168114610ba257600080fd5b919050565b60008060408385031215610bb9578182fd5b610bc283610b8b565b946020939093013593505050565b600080600060608486031215610be4578081fd5b610bed84610b8b565b95602085013595506040909401359392505050565b602080825282518282018190526000919060409081850190868401855b82811015610c8a57815180518552868101518786015285810151868601526060808201511515908601526080808201516001600160a01b039081169187019190915260a08083015182169087015260c091820151169085015260e09093019290850190600101610c1f565b5091979650505050505050565b60008219821115610caa57610caa610ce1565b500190565b600082821015610cc157610cc1610ce1565b500390565b6000600019821415610cda57610cda610ce1565b5060010190565b634e487b7160e01b600052601160045260246000fdfea26469706673582212206b1ffec082ca080b5d60c040c696e5bf685c3be8c7dd68fc388e1452058e9e0c64736f6c63430008040033",
  "linkReferences": {},
  "deployedLinkReferences": {}
}