{
  "contractName": "CryptoPool",
  "abi": [
    {
      "inputs": [],
      "stateMutability": "nonpayable",
      "type": "constructor"
    },
    {
      "anonymous": false,
      "inputs": [
        {
          "indexed": true,
          "internalType": "address",
          "name": "player",
          "type": "address"
        },
        {
          "indexed": true,
          "internalType": "uint256",
          "name": "amount",
          "type": "uint256"
        }
      ],
      "name": "ParticipantLog",
      "type": "event"
    },
    {
      "stateMutability": "nonpayable",
      "type": "fallback"
    },
    {
      "inputs": [],
      "name": "contractOwner",
      "outputs": [
        {
          "internalType": "address",
          "name": "",
          "type": "address"
        }
      ],
      "stateMutability": "view",
      "type": "function",
      "constant": true
    },
    {
      "inputs": [
        {
          "internalType": "uint256",
          "name": "",
          "type": "uint256"
        }
      ],
      "name": "participants",
      "outputs": [
        {
          "internalType": "address payable",
          "name": "",
          "type": "address"
        }
      ],
      "stateMutability": "view",
      "type": "function",
      "constant": true
    },
    {
      "inputs": [],
      "name": "poolState",
      "outputs": [
        {
          "internalType": "enum CryptoPool.LotteryState",
          "name": "",
          "type": "uint8"
        }
      ],
      "stateMutability": "view",
      "type": "function",
      "constant": true
    },
    {
      "stateMutability": "payable",
      "type": "receive",
      "payable": true
    },
    {
      "inputs": [
        {
          "internalType": "address",
          "name": "newOnwer",
          "type": "address"
        }
      ],
      "name": "changeContractOwner",
      "outputs": [],
      "stateMutability": "nonpayable",
      "type": "function"
    },
    {
      "inputs": [],
      "name": "closedPool",
      "outputs": [],
      "stateMutability": "nonpayable",
      "type": "function"
    },
    {
      "inputs": [],
      "name": "OpenPool",
      "outputs": [],
      "stateMutability": "nonpayable",
      "type": "function"
    },
    {
      "inputs": [],
      "name": "getContractBalance",
      "outputs": [
        {
          "internalType": "uint256",
          "name": "",
          "type": "uint256"
        }
      ],
      "stateMutability": "view",
      "type": "function",
      "constant": true
    },
    {
      "inputs": [],
      "name": "getAllCurrentPlayer",
      "outputs": [
        {
          "internalType": "address payable[]",
          "name": "",
          "type": "address[]"
        }
      ],
      "stateMutability": "view",
      "type": "function",
      "constant": true
    },
    {
      "inputs": [],
      "name": "pickWinner",
      "outputs": [
        {
          "internalType": "address",
          "name": "winnderAddress",
          "type": "address"
        }
      ],
      "stateMutability": "nonpayable",
      "type": "function"
    }
  ],
  "bytecode": "0x608060405234801561001057600080fd5b50336000806101000a81548173ffffffffffffffffffffffffffffffffffffffff021916908373ffffffffffffffffffffffffffffffffffffffff1602179055506000600260006101000a81548160ff0219169083600281111561007757610076610081565b5b02179055506100b0565b7f4e487b7100000000000000000000000000000000000000000000000000000000600052602160045260246000fd5b6110f3806100bf6000396000f3fe60806040526004361061008a5760003560e01c8063641ad8a911610059578063641ad8a9146103035780636f9fb98a1461032e57806391000ee314610359578063ce606ee014610370578063e77e480d1461039b57610238565b80631940b8921461024757806335c1d349146102725780633ead67b5146102af5780635d495aea146102d857610238565b3661023857662386f26fc1000034146040518060600160405280602d815260200161106e602d9139906100f3576040517f08c379a00000000000000000000000000000000000000000000000000000000081526004016100ea9190610b9d565b60405180910390fd5b5060008054906101000a900473ffffffffffffffffffffffffffffffffffffffff1673ffffffffffffffffffffffffffffffffffffffff163373ffffffffffffffffffffffffffffffffffffffff16141560405180606001604052806031815260200161103d603191399061019e576040517f08c379a00000000000000000000000000000000000000000000000000000000081526004016101959190610b9d565b60405180910390fd5b50600360003373ffffffffffffffffffffffffffffffffffffffff1673ffffffffffffffffffffffffffffffffffffffff16815260200190815260200160002060009054906101000a900460ff161561022c576040517f08c379a000000000000000000000000000000000000000000000000000000000815260040161022390610c0b565b60405180910390fd5b61023633346103b2565b005b34801561024457600080fd5b50005b34801561025357600080fd5b5061025c61049d565b6040516102699190610d1b565b60405180910390f35b34801561027e57600080fd5b5061029960048036038101906102949190610d78565b61052b565b6040516102a69190610db4565b60405180910390f35b3480156102bb57600080fd5b506102d660048036038101906102d19190610e0d565b61056a565b005b3480156102e457600080fd5b506102ed610657565b6040516102fa9190610e49565b60405180910390f35b34801561030f57600080fd5b50610318610831565b6040516103259190610edb565b60405180910390f35b34801561033a57600080fd5b50610343610844565b6040516103509190610f05565b60405180910390f35b34801561036557600080fd5b5061036e610851565b005b34801561037c57600080fd5b50610385610928565b6040516103929190610e49565b60405180910390f35b3480156103a757600080fd5b506103b061094c565b005b600060028111156103c6576103c5610e64565b5b600260009054906101000a900460ff1660028111156103e8576103e7610e64565b5b146103f257600080fd5b6001829080600181540180825580915050600190039060005260206000200160009091909190916101000a81548173ffffffffffffffffffffffffffffffffffffffff021916908373ffffffffffffffffffffffffffffffffffffffff160217905550808273ffffffffffffffffffffffffffffffffffffffff167fe4c01a80a213317da8c9ed6c9b898b119ffda0a5f2f45f97837f977a7fefef0460405160405180910390a35050565b6060600180548060200260200160405190810160405280929190818152602001828054801561052157602002820191906000526020600020905b8160009054906101000a900473ffffffffffffffffffffffffffffffffffffffff1673ffffffffffffffffffffffffffffffffffffffff16815260200190600101908083116104d7575b5050505050905090565b6001818154811061053b57600080fd5b906000526020600020016000915054906101000a900473ffffffffffffffffffffffffffffffffffffffff1681565b60008054906101000a900473ffffffffffffffffffffffffffffffffffffffff1673ffffffffffffffffffffffffffffffffffffffff163373ffffffffffffffffffffffffffffffffffffffff161460405180606001604052806023815260200161109b6023913990610613576040517f08c379a000000000000000000000000000000000000000000000000000000000815260040161060a9190610b9d565b60405180910390fd5b50806000806101000a81548173ffffffffffffffffffffffffffffffffffffffff021916908373ffffffffffffffffffffffffffffffffffffffff16021790555050565b60008060009054906101000a900473ffffffffffffffffffffffffffffffffffffffff1673ffffffffffffffffffffffffffffffffffffffff163373ffffffffffffffffffffffffffffffffffffffff161460405180606001604052806023815260200161109b6023913990610703576040517f08c379a00000000000000000000000000000000000000000000000000000000081526004016106fa9190610b9d565b60405180910390fd5b506003600180549050101561071757600080fd5b6000610721610a23565b9050600080600180549050836107379190610f4f565b90506001818154811061074d5761074c610f80565b5b9060005260206000200160009054906101000a900473ffffffffffffffffffffffffffffffffffffffff1691508173ffffffffffffffffffffffffffffffffffffffff166108fc61079c610844565b9081150290604051600060405180830381858888f193505050501580156107c7573d6000803e3d6000fd5b50600067ffffffffffffffff8111156107e3576107e2610faf565b5b6040519080825280602002602001820160405280156108115781602001602082028036833780820191505090505b5060019080519060200190610827929190610a5d565b5081935050505090565b600260009054906101000a900460ff1681565b6000804790508091505090565b60008054906101000a900473ffffffffffffffffffffffffffffffffffffffff1673ffffffffffffffffffffffffffffffffffffffff163373ffffffffffffffffffffffffffffffffffffffff161460405180606001604052806023815260200161109b60239139906108fa576040517f08c379a00000000000000000000000000000000000000000000000000000000081526004016108f19190610b9d565b60405180910390fd5b506000600260006101000a81548160ff0219169083600281111561092157610920610e64565b5b0217905550565b60008054906101000a900473ffffffffffffffffffffffffffffffffffffffff1681565b60008054906101000a900473ffffffffffffffffffffffffffffffffffffffff1673ffffffffffffffffffffffffffffffffffffffff163373ffffffffffffffffffffffffffffffffffffffff161460405180606001604052806023815260200161109b60239139906109f5576040517f08c379a00000000000000000000000000000000000000000000000000000000081526004016109ec9190610b9d565b60405180910390fd5b506001600260006101000a81548160ff02191690836002811115610a1c57610a1b610e64565b5b0217905550565b60004442600180549050604051602001610a3f93929190610fff565b6040516020818303038152906040528051906020012060001c905090565b828054828255906000526020600020908101928215610ad6579160200282015b82811115610ad55782518260006101000a81548173ffffffffffffffffffffffffffffffffffffffff021916908373ffffffffffffffffffffffffffffffffffffffff16021790555091602001919060010190610a7d565b5b509050610ae39190610ae7565b5090565b5b80821115610b00576000816000905550600101610ae8565b5090565b600081519050919050565b600082825260208201905092915050565b60005b83811015610b3e578082015181840152602081019050610b23565b83811115610b4d576000848401525b50505050565b6000601f19601f8301169050919050565b6000610b6f82610b04565b610b798185610b0f565b9350610b89818560208601610b20565b610b9281610b53565b840191505092915050565b60006020820190508181036000830152610bb78184610b64565b905092915050565b7f48617665206f6e6c79206f6e6520736c6f740000000000000000000000000000600082015250565b6000610bf5601283610b0f565b9150610c0082610bbf565b602082019050919050565b60006020820190508181036000830152610c2481610be8565b9050919050565b600081519050919050565b600082825260208201905092915050565b6000819050602082019050919050565b600073ffffffffffffffffffffffffffffffffffffffff82169050919050565b6000610c8282610c57565b9050919050565b610c9281610c77565b82525050565b6000610ca48383610c89565b60208301905092915050565b6000602082019050919050565b6000610cc882610c2b565b610cd28185610c36565b9350610cdd83610c47565b8060005b83811015610d0e578151610cf58882610c98565b9750610d0083610cb0565b925050600181019050610ce1565b5085935050505092915050565b60006020820190508181036000830152610d358184610cbd565b905092915050565b600080fd5b6000819050919050565b610d5581610d42565b8114610d6057600080fd5b50565b600081359050610d7281610d4c565b92915050565b600060208284031215610d8e57610d8d610d3d565b5b6000610d9c84828501610d63565b91505092915050565b610dae81610c77565b82525050565b6000602082019050610dc96000830184610da5565b92915050565b6000610dda82610c57565b9050919050565b610dea81610dcf565b8114610df557600080fd5b50565b600081359050610e0781610de1565b92915050565b600060208284031215610e2357610e22610d3d565b5b6000610e3184828501610df8565b91505092915050565b610e4381610dcf565b82525050565b6000602082019050610e5e6000830184610e3a565b92915050565b7f4e487b7100000000000000000000000000000000000000000000000000000000600052602160045260246000fd5b60038110610ea457610ea3610e64565b5b50565b6000819050610eb582610e93565b919050565b6000610ec582610ea7565b9050919050565b610ed581610eba565b82525050565b6000602082019050610ef06000830184610ecc565b92915050565b610eff81610d42565b82525050565b6000602082019050610f1a6000830184610ef6565b92915050565b7f4e487b7100000000000000000000000000000000000000000000000000000000600052601260045260246000fd5b6000610f5a82610d42565b9150610f6583610d42565b925082610f7557610f74610f20565b5b828206905092915050565b7f4e487b7100000000000000000000000000000000000000000000000000000000600052603260045260246000fd5b7f4e487b7100000000000000000000000000000000000000000000000000000000600052604160045260246000fd5b6000819050919050565b610ff9610ff482610d42565b610fde565b82525050565b600061100b8286610fe8565b60208201915061101b8285610fe8565b60208201915061102b8284610fe8565b60208201915081905094935050505056fe436f6e7472616374204f6e7765722043616e206e6f7420706172746963697061746520696e207468697320616374696f6e416d6f756e7420746f207374616b652073686f756c6420626520657175616c20746f20302e30312045746865725265737472696374656420746f204f6e776572206f662074686520636f6e7472616374a2646970667358221220ef4ae7ac358c8c7334087f81726764e1baf09d70c89c2762fed074d03929de4e64736f6c634300080b0033",
  "immutableReferences": {},
  "source": "//SPDX-License-Identifier: GL-3.0\n\npragma solidity >=0.5.0 <=0.9.0;\n\n// pragma experimental ABIEncoderV2;\n\ncontract CryptoPool {\n    string internal constant ADMIN_PERMISSION =\n        \"Restricted to Onwer of the contract\";\n    string internal constant INSUFFICIENT_FUNDS =\n        \"Amount to stake should be equal to 0.01 Ether\";\n    string internal constant CONTRACT_OWNER_WARNING =\n        \"Contract Onwer Can not participate in this action\";\n\n    address public contractOwner;\n\n    address payable[] public participants;\n\n    enum LotteryState {\n        Open,\n        Closed,\n        Cancel\n    }\n\n    LotteryState public poolState;\n\n    mapping(address => bool) havePlayed;\n\n    constructor() {\n        contractOwner = msg.sender;\n        poolState = LotteryState.Open;\n    }\n\n    event ParticipantLog(address indexed player, uint256 indexed amount);\n\n    modifier AdminAccess() {\n        require(msg.sender == contractOwner, ADMIN_PERMISSION);\n        _;\n    }\n\n    modifier PoolOpen() {\n        require(poolState == LotteryState.Open);\n        _;\n    }\n\n    modifier PoolCancel() {\n        require(poolState == LotteryState.Cancel);\n        _;\n    }\n\n    modifier PoolClosed() {\n        require(poolState == LotteryState.Closed);\n        _;\n    }\n\n    receive() external payable {\n        require(msg.value == 0.01 ether, INSUFFICIENT_FUNDS);\n        require(msg.sender != contractOwner, CONTRACT_OWNER_WARNING);\n        require(!havePlayed[msg.sender], \"Have only one slot\");\n        addPlayerToList(msg.sender, msg.value);\n    }\n\n    fallback() external {}\n\n    function addPlayerToList(address _address, uint256 _amount)\n        private\n        PoolOpen\n    {\n        participants.push(payable(_address));\n        //  havePlayed[_address] = true;\n        emit ParticipantLog(_address, _amount);\n    }\n\n    // To be Rafactored Using ChainLink VRF..\n    // Curerent Random Number is basic and to be used for demonstration\n\n    function generateRandomId() private view returns (uint256) {\n        return\n            uint256(\n                keccak256(\n                    abi.encodePacked(\n                        block.difficulty,\n                        block.timestamp,\n                        participants.length\n                    )\n                )\n            );\n    }\n\n    function changeContractOwner(address newOnwer) public AdminAccess {\n        contractOwner = newOnwer;\n    }\n\n    function closedPool() public AdminAccess {\n        poolState = LotteryState.Closed;\n    }\n\n    function OpenPool() public AdminAccess {\n        poolState = LotteryState.Open;\n    }\n\n    function getContractBalance() public view returns (uint256) {\n        uint256 balance = address(this).balance;\n        return balance;\n    }\n\n    function getAllCurrentPlayer()\n        public\n        view\n        returns (address payable[] memory)\n    {\n        return participants;\n    }\n\n    function pickWinner() public AdminAccess returns (address winnderAddress) {\n        require(participants.length >= 3);\n\n        uint256 randomNumberResult = generateRandomId();\n\n        address payable winner;\n\n        uint256 index = randomNumberResult % participants.length;\n        winner = participants[index];\n        winner.transfer(getContractBalance());\n        participants = new address payable[](0);\n\n        return winner;\n    }\n\n    // Add Winnners Logs table\n}\n",
  "sourcePath": "/Users/chinweikemichael/Desktop/cmcWebCode/Blockchain-projects/contracts/CryptoPool.sol",
  "compiler": {
    "name": "solc",
    "version": "0.8.11+commit.d7f03943.Emscripten.clang"
  },
  "schemaVersion": "3.4.3",
  "updatedAt": "2021-12-24T20:37:16.816Z",
  "networkType": "ethereum",
  "devdoc": {
    "kind": "dev",
    "methods": {},
    "version": 1
  },
  "userdoc": {
    "kind": "user",
    "methods": {},
    "version": 1
  }
}